:100000000C94B7010C94E8010C94E8010C94E801FD
:100010000C94E8010C94E8010C94E8010C94E801BC
:100020000C94E8010C94E8010C94E8010C94E801AC
:100030000C94E8010C94E8010C94E8010C94E8019C
:100040000C94E8010C94E8010C94E8010C94E8018C
:100050000C94E8010C94E8010C94E8010C947622CD
:100060000C94E8010C94BF160C9495160C94E801BE
:100070000C94E8010C94E8010C94E8010C94E8015C
:100080000C94E8010C94E8010C94E8010C94E8014C
:100090000C94E8010C94E8010C94E8010C949D0682
:1000A0000C94E8010C94E8010C94E8010C94E8012C
:1000B0000C94E8010C94E8010C94E8010C94E8011C
:1000C0000C94E8010C94E8010C94E8010C94E8010C
:1000D0000C94E8010C94E8010C94E8010C94E801FC
:1000E0000C94E801F102F602FB0205030F038803FA
:1000F00019032103290333033D0347035603600318
:1001000088036A0374037E03D208DD08E808FB084D
:100110000E09210934094F09620975099009101562
:100120001315021506150A154A1517151B15211565
:10013000251529152F15331537154A153D15411568
:1001400045150C9462090C945E150C942C020C94C9
:10015000FB080C94BA150C9434090C9437150C94C4
:100160003D030C9405030C941C020C9498150C94FC
:1001700033030C941B150C9474030C944A150C94C3
:1001800040020C9419030C94AC150C94F1020C94DD
:10019000F6020C946A030C9410150C9429150C9417
:1001A0000E090C9425150C94E8080C9460030C942B
:1001B00041150C9456030C94DD080C9488030C94A0
:1001C0004F090C9402150C9490090C9417150C947B
:1001D00033150C9489150C940F030C9421030C9483
:1001E00073290C94D2080C9475090C9421150C9465
:1001F0000A150C9421090C9478020C9429030C9490
:100200005E290C947E030C9413150C9447030C94F4
:1002100048020C94F1150C9438160C943D150C946E
:100220001D020C94A8020C94FB020C9445150C942E
:100230002F150C9406154661696C656420746F2057
:10024000626F6F74204D505536303530004661690D
:100250006C656420746F20626F6F7420564C353368
:100260004C30580000000A0B02090C0D0E08070361
:100270000401000000000000000000000000000079
:10028000000000000000000000000000000000006E
:10029000121110000000000000000000000000002B
:1002A00000000000000000000000010210202008F3
:1002B00008102040102040800201020108040201C1
:1002C0000102040810204080804020100804020130
:1002D0008004020180402010080402010804020189
:1002E0000102040810204080010204081020408010
:1002F00000002200250028002B002E0031003400D1
:1003000002010000050108010B01050505050705AF
:1003100008080808020202020A0A08080404040481
:1003200001010101010101010303030303030303AD
:10033000040707070C0C0C0C0C0C0C0C020202023C
:1003400006060606060606060B0B0B0B0B0B0B0B25
:1003500000002100240027002A002D003000330077
:1003600001010000040107010A0173295E2911241B
:100370001FBECFEFD1E2DEBFCDBF00E00CBF13E068
:10038000A0E0B2E0E4E7FCE500E00BBF02C00790AC
:100390000D92A83BB107D9F727E0A8EBB3E001C065
:1003A0001D92A237B207E1F711E0C6EBD1E000E001
:1003B00006C021970109802FFE010E94522BC53BE8
:1003C000D10780E00807A9F70E94C0220C94282ECC
:1003D0000C94000085ED8093BC008091BC0084FDEE
:1003E000FCCF1092620408954091E903262F30E07B
:1003F000240F311D21323105DCF4209162042430B8
:10040000C9F4FC0180E090E0861758F43091E903CC
:100410002191DC01A953BC4FA30FB11D2C93019670
:10042000F3CF8091E903680F6093E90380E00895BA
:1004300081E0089582E008950895E0916404809138
:100440006304E81730F4F0E0EB59FB4F808190E053
:1004500008958FEF9FEF0895909164048091630455
:10046000981750F4E92FF0E0EB59FB4F208130E072
:100470009F5F9093640402C02FEF3FEFC90108957E
:100480008091630490E020916404821B9109089597
:10049000CF92DF92EF92FF920F931F93CF93DF9350
:1004A0007C01262F972F8A0180911804882391F0D0
:1004B000C62FD72F6E01C40ED51ECC15DD0571F0E9
:1004C0006991D701ED91FC910190F081E02DC70178
:1004D0001995F3CF642F822F0E94F401C801DF9198
:1004E000CF911F910F91FF90EF90DF90CF900895E3
:1004F000CF93DF931F92CDB7DEB7698320911804A5
:100500002223D1F020913B04203240F021E030E062
:10051000FC013383228380E090E015C080911904B0
:10052000E82FF0E0E65EFB4F998190838F5F809328
:10053000190480933B0405C061E0CE0101960E943E
:10054000F40181E090E00F90DF91CF91089508953C
:1005500080E090E008952F923F924F925F926F92C9
:100560007F928F929F92AF92BF92CF92DF92EF9243
:10057000FF920F931F93CF93DF93382E292EEB0119
:1005800029013A013EE3A32E35E0B32EC301B201A7
:100590000E94612B6B017C014B01F50101911191CE
:1005A0005F0161E0802F0E94CF21C114D10409F4C2
:1005B000B3C0FFEFCF16D10409F4B0C0F801FF2794
:1005C000EC59FD4FE4918E2F90E0FC013197E23120
:1005D000F10508F09DC08827EE58FF4F8F4F0C940F
:1005E000522B84B5806884BDC7BC9CC084B5806232
:1005F00084BDC8BC97C080918000806880938000D3
:10060000D0928900C09288008DC080918000806265
:1006100080938000D0928B00C0928A0083C080912A
:100620008000886080938000D0928D00C0928C0002
:1006300079C08091B00080688093B000C092B30010
:1006400071C08091B00080628093B000C092B4000D
:1006500069C080919000806880939000D09299004A
:10066000C09298005FC0809190008062809390005B
:10067000D0929B00C0929A0055C0809190008860F3
:1006800080939000D0929D00C0929C004BC08091BE
:10069000A00080688093A0008091A0008F7B809351
:1006A000A000D092A900C092A8003CC08091A000F8
:1006B00080628093A000D092AB00C092AA0032C0AA
:1006C0008091A00088608093A000D092AD00C0927D
:1006D000AC0028C080912001806880932001D092D6
:1006E0002901C09228011EC0809120018062809360
:1006F0002001D0922B01C0922A0114C080912001C8
:10070000886080932001D0922D01C0922C010AC0F4
:1007100080E88816910414F460E001C061E0802F45
:100720000E94E114E6E4AE16E5E0BE0609F02ECF25
:10073000832D922D22E0322E212C8130910569F0FB
:100740008230910581F0892B09F01CCF60E08A810D
:100750000E94E11461E088810CC060E088810E9401
:10076000E11461E005C060E088810E94E11460E06E
:100770008A81DF91CF911F910F91FF90EF90DF90D1
:10078000CF90BF90AF909F908F907F906F905F9031
:100790004F903F902F900C94E114EF92FF920F93A3
:1007A0001F93CF93DF931F921F92CDB7DEB78C01BB
:1007B0007A0162307105A1F138F46115710559F0C3
:1007C0006130710571F056C06330710579F16630A2
:1007D000710598F14FC0FC0181A992A9A3A9B4A900
:1007E0004BC0AE014F5F5F4F64E40E94C917811197
:1007F00049C0998120E030E0392F330FA90160E032
:1008000070E0232B51F5F80145A956A967A970ADF1
:10081000F7014083518362837383F80116A232C0CB
:10082000FC0181AD92ADA3ADB4AD26C0FC01FD9637
:1008300080819181A281B3811FC0AE014F5F5F4F64
:1008400064E60E94C91781111DC0298180E090E0F3
:10085000922F990FA0E0B0E00FC0F70140835183C1
:1008600062837383F80145AB56AB67AB70AF91E021
:1008700096A308C08CEF06C0F70180839183A28302
:10088000B38380E00F900F90DF91CF911F910F9174
:10089000FF90EF9008953F924F925F926F927F92F8
:1008A0008F929F92AF92BF92CF92DF92EF92FF9280
:1008B0000F931F93CF93DF9300D01F92CDB7DEB776
:1008C0008A01AE014F5F5F4F0E940A1B382E8111D3
:1008D00036C049805A806B807C8088EE882E83E009
:1008E000982EA12CB12CC301B201A50194010E9444
:1008F000E92A69017A01A8EEB3E00E94DE2AA30189
:100900009201261B370B480B590BAFEFBFEF0E942C
:10091000DE2A6C507E4F8F4F9F4FA50194010E949D
:10092000E92A7601DD24CC24DA01C9018C0D9D1D54
:10093000AE1DBF1DF80180839183A283B383832DF5
:100940000F900F900F900F90DF91CF911F910F910B
:10095000FF90EF90DF90CF90BF90AF909F908F90DF
:100960007F906F905F904F903F9008950F931F93EB
:10097000CF93DF931F92CDB7DEB78B011982AE0103
:100980004F5F5F4F61E00E94F817811116C0998197
:1009900094FB222720F9F801208393FB222720F9DA
:1009A000228392FB222720F9218396FB222720F91C
:1009B0002383991F9927991F94830F90DF91CF91DB
:1009C0001F910F9108955F926F927F928F929F92E5
:1009D000AF92BF92CF92DF92EF92FF920F931F934D
:1009E000CF93DF93CDB7DEB761970FB6F894DEBF34
:1009F0000FBECDBF7C018B01FC018089FB01808390
:100A0000AE014A5F5F4F68EFC7010E94C917582EB9
:100A1000811127C0AE014F5F5F4F64E0C7010E94A4
:100A20008617582E81111DC02E813F812115310559
:100A300069F040E050E069817A818B819C810E945D
:100A4000E92AF8012683378340875187F801868198
:100A50009781A085B185F701868B978BA08FB18F89
:100A600002C0511053C1F8011286AE014F5F5F4FB3
:100A700060E2C7010E94C917582E811147C18981C0
:100A80009A81009769F4F701858D968DA78DB0A1A5
:100A9000F80185879687A787B08BF701128E13C060
:100AA00033E0880F991F3A95E1F7A0E0B0E0F80134
:100AB00085879687A787B08BF701858F968FA78F3D
:100AC000B0A381E0828FAE014F5F5F4F68E2C70144
:100AD0000E94C917582E811119C189819A819F706E
:100AE0008115F8E09F0708F090514AEF489F900168
:100AF000499F300D1124C901330FAA0BBB0BF8011C
:100B0000818B928BA38BB48B5801F1E2AF0EB11C99
:100B1000370125E2620E711C480185E1880E911CA7
:100B2000C12CD12CA501B601C7010E94CD03582EBE
:100B30008111ECC0F30181913F01F40181934F01D8
:100B4000FFEFCF1ADF0A24E0A20EB11C86E0C81620
:100B5000D10441F7AE014F5F5F4F61E0C7010E94D2
:100B6000F817582E8111D2C08981F701E35EFE4F3C
:100B7000808387FF04C081E0F80181AF02C0F801E3
:100B800011AEF80181ADF701E75BFF4F808380ED87
:100B900097E0A0E0B0E08A879B87AC87BD871E8284
:100BA0001F821886198686E39BE0A0E0B0E0F8017A
:100BB00082839383A483B583BE016F5F7F4FC70198
:100BC0000E94B604582E8111A1C08981811107C0ED
:100BD0008A81811104C08B81882309F449C0AE0148
:100BE000465F5F4F62E0C7010E940A1B81118DC002
:100BF00089818823A9F08A859B85AC85BD85825B28
:100C00009D4FAF4FBF4FF801428153816481758181
:100C1000840F951FA61FB71F82839383A483B58378
:100C20008B81882369F08A859B85AC85BD858E5430
:100C30009D4FAF4FBF4F880F991FAA1FBB1F0BC0FF
:100C40008A818823A9F08A859B85AC85BD858C56D1
:100C50009D4FAF4FBF4FF801428153816481758131
:100C6000840F951FA61FB71F82839383A483B58328
:100C70008C818823F1F0AE014A5F5F4F63E0C701CA
:100C80000E940A1B4E815F81688579854C565D4FB5
:100C90006F4F7F4FF80182809380A480B580480D0C
:100CA000591D6A1D7B1D42835383648375838111A3
:100CB0002CC08D8181110BC0F80182819381A481A8
:100CC000B581F701828B938BA48BB58B1FC0AE01CE
:100CD000425F5F4F64E0C7010E940A1B4E855F853B
:100CE000688979894A5D5D4F6F4F7F4FF801828037
:100CF0009380A480B580480D591D6A1D7B1D4283D9
:100D00005383648375838823B9F2582E852D6196A9
:100D10000FB6F894DEBF0FBECDBFDF91CF911F910C
:100D20000F91FF90EF90DF90CF90BF90AF909F908A
:100D30008F907F906F905F9008951F920F920FB6E3
:100D40000F9211240BB60F922F933F934F935F9303
:100D50006F937F938F939F93AF93BF93EF93FF9383
:100D60008091B900887F803609F49CC068F588328C
:100D700009F45BC090F4803109F454C038F488233E
:100D800009F4F6C0883009F44DC0F6C0883109F482
:100D90004CC0803209F45DC0EFC0803409F468C0F3
:100DA00048F4803309F455C0883309F0E5C08093D6
:100DB0006004D8C0803509F44FC0883509F45DC09F
:100DC000883409F0D9C0D6C0883909F4C7C0A8F45E
:100DD000883709F467C038F4883609F463C080376F
:100DE00009F460C0C9C0883809F4B8C0803909F472
:100DF0005FC0803809F0C0C05BC0803B09F486C08A
:100E000038F4803A09F466C0883A09F47FC0B4C067
:100E1000803C09F4A7C0883C09F4A4C0883B09F4CD
:100E20008AC0AAC080915D0410C090915F04809137
:100E30005E04981770F5E0915F0481E08E0F809357
:100E40005F04F0E0E45CFB4F80818093BB0085ECA5
:100E500086C0809360048EC0E0915F0481E08E0FB5
:100E600080935F048091BB00F0E0E45CFB4F8083E3
:100E700090915F0480915E046EC0E0915F0481E018
:100E80008E0F80935F048091BB00F0E0E45CFB4F29
:100E900080838091610481116DC081E080935C0446
:100EA00084EA61C083E08093620410920D04CFCF86
:100EB00080910D04803208F051C0E0910D0481E072
:100EC0008E0F80930D048091BB00F0E0E351FC4F46
:100ED0008083BDCF85EC8093BC001092620480912A
:100EE0000D04803230F4E0910D04F0E0E351FC4F4A
:100EF000108260910D0470E0E091EB03F091EC033F
:100F00008DEE93E0199510920D0436C084E0809325
:100F100062041092EA031092E903E091E703F09172
:100F2000E80319958091E903811105C081E0809360
:100F3000E9031092C703E091EA0381E08E0F8093EA
:100F4000EA03F0E0E953FC4F80818093BB0090916D
:100F5000EA038091E903981708F479CF85E8809334
:100F6000BC000AC085EC8093BC001092620404C0EF
:100F7000109260040E94EA01FF91EF91BF91AF913E
:100F80009F918F917F916F915F914F913F912F91A1
:100F90000F900BBE0F900FBE0F901F9018951092E0
:100FA000620481E08093610410925C0461E084E15A
:100FB0000E94E11461E085E10E94E114E9EBF0E0B8
:100FC00080818E7F808380818D7F808388E4809381
:100FD000B80085E48093BC0008952F923F924F9211
:100FE0005F926F927F928F929F92AF92BF92CF92B9
:100FF000DF92EF92FF920F931F93CF93DF9300D076
:101000001F921F92CDB7DEB7E12CF12CC12CD12C51
:101010001D821C821C0133249B0133273A832983C0
:101020004A019924142F062F8B8344244A94542C6C
:10103000612C712C80911307909114076C817D8134
:101040006817790708F047C080911807811104C01C
:10105000312F402F5B811AC090E0289E9001299E7D
:10106000300D389E300D1124532FE981FA81E89F0D
:101070009001E99F300DF89F300D1124432F889E79
:101080009001899E300D989E300D112420911E07ED
:1010900060911B078091190790911A07261303C0CE
:1010A0008C0D9D1D06C08E0D9F1DFC01E20FF11DD4
:1010B000108220911B07FC01E20FF11D508320914B
:1010C0001C07FC01E20FF11D408320911D07FC016C
:1010D000E20FF11D308320911807222329F1A090FF
:1010E0001907B0901A07215041F030E040E050E07D
:1010F000C301B2010E94BF2A02C020E030E0F50126
:101100004091150750911607CF018A199B09841742
:10111000950740F44081429FC001439F900D1124E8
:101120009193EECF109218072C813D812F5F3F4F96
:101130003D832C8333E0C30ED11C64E0E60EF11C2A
:101140008C819D81409709F075CF0F900F900F9083
:101150000F900F90DF91CF911F910F91FF90EF9023
:10116000DF90CF90BF90AF909F908F907F906F90C7
:101170005F904F903F902F900895CF92DF92EF9223
:10118000FF928B30910508F0EBC06A017B01FC01F6
:101190009A01AB016FEF72E08827EC57FF4F8F4F3A
:1011A0000C94522B80E090E00E94AB02A7019601C4
:1011B0006BEF72E080E090E0A2C081E090E00E94DE
:1011C000AB02A70196016BEF72E081E090E043C0B3
:1011D00081E090E00E94AB02A70196016BEF72E004
:1011E00080E090E00E94AB02A701960167EF72E0F9
:1011F00081E090E08CC082E090E00E94AB02A70109
:1012000096016BEF72E080E090E00E94AB02A701D4
:10121000960167EF72E082E090E079C082E090E0B2
:101220000E94AB02A70196016BEF72E081E090E0B3
:101230000E94AB02A701960167EF72E082E090E0A6
:1012400025C080E090E00E94AB02A70196016BEF01
:1012500072E080E090E00E94AB02A701960167EF88
:1012600072E081E090E012C080E090E00E94AB026A
:10127000A70196016BEF72E081E090E00E94AB0263
:10128000A701960167EF72E080E090E00E94AB0258
:10129000A701960163EF72E081E090E05BC080E01F
:1012A00090E00E94AB02A70196016BEF72E082E032
:1012B00090E00E94AB02A701960167EF72E080E028
:1012C00090E040C081E090E00E94AB02A70196014F
:1012D0006BEF72E082E090E00E94AB02A701960102
:1012E00067EF72E081E090E02DC081E090E00E9425
:1012F000AB02A70196016BEF72E081E090E00E94E3
:10130000AB02A701960167EF72E080E090E00E94D7
:10131000AB02A701960163EF72E080E090E01AC093
:1013200082E090E00E94AB02A70196016BEF72E0B1
:1013300082E090E00E94AB02A701960167EF72E0A5
:1013400082E090E00E94AB02A701960163EF72E099
:1013500082E090E0FF90EF90DF90CF900C94AB0292
:10136000FF90EF90DF90CF9008958EBD00000DB4F8
:1013700007FEFDCF8EB50895CF92DF92EF92FF92D8
:101380000F931F93CF93DF9300D01F921F92CDB77F
:10139000DEB76C0100E010E07C018EECE80EF11C81
:1013A000F7018081AE014B5F5F4F843071F463E1E0
:1013B000C6010E94F8179D81292F2770987109F0A6
:1013C0008AEF91E0243051F40AC064E1C6010E9422
:1013D000F817811103C09D81917003C090E08111C5
:1013E00023C0913009F1073C1105E9F019821A82F6
:1013F0001B821C8289819A81AB81BC818A3F9105C5
:10140000A105B10568F4000089819A81AB81BC8196
:101410000196A11DB11D89839A83AB83BC83EACF5A
:101420000F5F1F4FBDCF89EF0F900F900F900F9060
:101430000F90DF91CF911F910F91FF90EF90DF9070
:10144000CF900895CF93DF93EC01462F416060E089
:101450000E946F18811111C0CE010E94BC09811138
:101460000CC0CE010E949311811107C040E060E0E2
:10147000CE01DF91CF910C946F18DF91CF91089539
:101480002F923F924F925F926F927F928F929F9294
:10149000AF92BF92CF92DF92EF92FF920F931F9382
:1014A000CF93DF93CDB7DEB7C054D1090FB6F89410
:1014B000DEBF0FBECDBF7C0121967FAF6EAF2197FF
:1014C000FC01E35EFE4F20812AAF40EC61E00E9408
:1014D0006F188111BDC2D70150961C9241E060E89F
:1014E000C7010E946F1841E06FEFC7010E946F189B
:1014F00040E060E0C7010E946F18F701E95DFE4F10
:10150000408161E9C7010E946F1841E060E0C701B6
:101510000E946F1840E06FEFC7010E946F1840E013
:1015200060E8C7010E946F1841E060E0C7010E94B7
:101530006F1891E09983811123C0812C912C540163
:10154000BFEF8B1A9B0AAB0ABB0A998190FF10C0B0
:10155000811132C0E8EC8E169104A104B10471F03F
:10156000AE014F5F5F4F60E0C7010E94F817E8CF00
:10157000F8EC8F169104A104B10411F489EF68C24C
:10158000811166C2C7010E94BC09811161C283E05A
:10159000F701E15EFE4F80830CE010E020E030E0D8
:1015A000AE01465E5F4F64E1B29680810E94F516FF
:1015B000892B51F08CEE4CC298EC89169104A10451
:1015C000B10409F045C2DACF2CA130E0322F222736
:1015D0008DA1280F311D69A170E0DB01BA2FAA2768
:1015E000BB0FB8AFAFAB2D01612C712CBBA1BEAF4F
:1015F0008C8D90E0982F88274D8D6C01C40ED11CE6
:101600001A8DF701E75CFE4F408151817B97008185
:10161000483EE3E05E07B9F1249FC001259F900D8D
:10162000349F900D11248C509E4F68EE73E00E9401
:101630002A2B9B01F701858D968DA78DB0A1428D38
:10164000442309F1C89E4001C99E900CD89E900C7D
:101650001124892C9924A12CB12C481459046A0412
:101660007B0429F4011112C020EE3AE81FC0AFA993
:10167000B8AD0E940B2BA3019201281939094A0920
:101680005B090E94E92A002389F002C028EB32E2BC
:10169000A90156954795569547955DAF4CAF522F8A
:1016A0005295550F550F507C5BAF03C03DAF2CAF2B
:1016B0001BAE1FA61EA61877812F90E0DC0113E059
:1016C000B595A7951A95E1F7B9ABA8ABB8A9B9AF8D
:1016D000E8A9F9A9309759F08E2F8D7F01E0853068
:1016E00039F08E2F8C50843018F000E001C001E0FA
:1016F00041E06FEFC7010E946F18811107C0AE0172
:10170000425D5F4F66EBC7010E94C9179EA5812C01
:10171000912C992E990CA12CB12C811105C040E07F
:101720006FEFC7010E946F18F701EE5CFE4F8082D9
:101730009182A282B382811178C1D7019596BC9122
:10174000BEABBB2309F46BC0F701828D882391F0F7
:10175000258D368D478D50A1D6010E94DE2ADC01F1
:10176000CB0180589F4FAF4FBF4F892F9A2FAB2F80
:10177000BB2703C080E090E0DC019C01AD01240D9B
:10178000351D461D571DA8EEB3E00E94DE2ADC0180
:10179000CB019058AF4FBF4FCD01AA27BB27F70110
:1017A000E65DFE4F892B8A2B8B2B89F48EEA97E816
:1017B000AFE8B2E080839183A283B3832EEA37E857
:1017C0004FE852E02AAB3BAB4CAB5DAB08C010829C
:1017D0001182128213821AAA1BAA1CAA1DAAAE0188
:1017E000465D5F4F60E070E0C7010E94CD03282F87
:1017F0004AA55BA56CA57DA541155105610571053F
:1018000051F011E08AA99BA9ACA9BDA948175907B5
:101810006A077B0708F010E0222311F008C110E0EE
:10182000D70197962C902220E1F0AE014A5D5F4FE0
:1018300062E070E0C7010E94CD034EA15FA168A5E0
:1018400079A5411551056105710539F033243394AB
:10185000481559056A057B0508F0312C882311F0DD
:10186000E8C0312CF701F0A5FAABFF23A1F1C114B8
:10187000D10499F02FA938ADC901A0E0B0E06627E6
:10188000782F892F9A2F4601A12CB12CA501940104
:101890000E94E92A49015A0103C0812C912C54016C
:1018A000AE014F5F5F4F63E070E0C7010E94CD0360
:1018B00049815A816B817C81411551056105710512
:1018C00031F091E084169506A606B70608F090E080
:1018D000882311F025C090E0013009F4ADC088A93B
:1018E0008150833008F4AAC039AD363009F4A8C05D
:1018F000393009F4A5C088A98D7F883009F4A2C0C9
:1019000041E0341609F49EC0343009F49DC0913092
:1019100009F49AC0113009F499C010E090E0312C1C
:1019200080E0D70196963C91BEA921E0BB2319F037
:10193000113009F020E0F70123A748A959A921E0B7
:101940004430510511F0311120E0D7019C962C93C1
:1019500021E0222011F0321220E0F70125A7FAA998
:1019600021E0FF2319F0913009F020E0D7019E9685
:101970002C9399E19701265B3F4FF901DE01119607
:1019800001900D929A95E1F71D821E821F821886A2
:10199000ECADFDADFA87E9871C861B864D865E8619
:1019A0006F86788AFEAD4F2F50E0542F4427550F95
:1019B00060E070E0498B5A8B6B8B7C8BDE8ACD8A22
:1019C0004BAD488F898F89E1FE013196D901019095
:1019D0000D928A95E1F7C7010E949311811138C0D9
:1019E00041E06FEFC7010E946F18811131C021964D
:1019F0004EAD5FAD219766EBC7010E94C9178111FB
:101A000027C040E06FEFC7010E946F18811120C00E
:101A10004AAD61E0C7010E946F18811119C0F7013A
:101A2000E35EFE4F5AAD508313C010E01EAA212C76
:101A3000312C90E01AAA74CF8FEF73CF85E071CF6D
:101A400084E06FCF83E06DCF82E06BCF81E069CF20
:101A5000C05CDF4F0FB6F894DEBF0FBECDBFDF9185
:101A6000CF911F910F91FF90EF90DF90CF90BF909B
:101A7000AF909F908F907F906F905F904F903F902E
:101A80002F900895CF92DF92EF92FF921F93CF9302
:101A9000DF931F92CDB7DEB77C0140E063E80E9480
:101AA0006F18182F811117C0C12CD12CAE014F5FB8
:101AB0005F4F63E8C7010E94F817182F89818111D1
:101AC0000AC0111108C08FEFC81AD80A88ECC816CE
:101AD000D10461F719EF41E063E8C7010E946F1874
:101AE000812B0F90DF91CF911F91FF90EF90DF90AE
:101AF000CF9008956F927F929F92AF92BF92CF92B4
:101B0000DF92EF92FF920F931F93CF93DF931F9279
:101B1000CDB7DEB77C013B015A01922E6C0183EEFA
:101B2000C81A8EEFD80AF6011081198241E061E0EF
:101B3000C7010E946F18811113C060E4C7010E94A1
:101B4000220A81110DC0F1E09F120AC000E021E0DD
:101B5000AE014F5F5F4FB301C7010E94391102C050
:101B6000F3011082811127C042E061E0C7010E94A9
:101B70006F18811113C060E0C7010E94220A811111
:101B80000DC0F1E09F120AC001E020E0A501BE01F6
:101B90006F5F7F4FC7010E94391102C0F5011082AB
:101BA000811109C0412F61E0C7010E946F188111A6
:101BB00002C0F60110830F90DF91CF911F910F911A
:101BC000FF90EF90DF90CF90BF90AF909F907F906D
:101BD0006F9008950F931F93AB01FC01EF5BFE4FD5
:101BE00006E010E020E030E060EB80810E944017CA
:101BF000892B11F08CEE01C080E01F910F910895A8
:101C00002F923F924F925F926F927F928F929F920C
:101C1000AF92BF92CF92DF92EF92FF920F931F93FA
:101C2000CF93DF93CDB7DEB7AB970FB6F894DEBF97
:101C30000FBECDBF1C017EA36DA358A74FA31B866B
:101C40001C861D861E861F82188619861A861A8A89
:101C5000198AFC01E85DFE4F20813181388F2F8B7E
:101C6000AC014F5E5E4F5A8F498FDA011C922C01F6
:101C7000BEEE4B1ABEEF5B0AF20110823C01FDEE94
:101C80006F1AFEEF7F0AD3011C92FC01EC5EFE4F3F
:101C90001082319610823196108241E06FEF0E94DF
:101CA0006F188111FCC140E06FE4C1010E946F1800
:101CB0008111F5C14CE26EE4C1010E946F188111DF
:101CC000EEC140E06FEFC1010E946F188111E7C1C2
:101CD00044EB66EBC1010E946F188111E0C140E046
:101CE00060E8C1010E946F188111D9C120E0AE01E6
:101CF0004F5E5F4FBE016E5E7F4FC1010E947A0D45
:101D00008111CDC11B861C861D861E86F101E95EF0
:101D1000FE4FFC8FEB8F9E01255F3F4F4901A3E0F3
:101D2000AA2EB12CC12CD12CE12CF12C8701298DAC
:101D30003A8DAF0160E0C1010E9475128111AFC1FF
:101D40004B855C856D857E854B8B5C8B6D8B7E8B2F
:101D5000BE01615F7F4FC1010E94400A81119FC196
:101D60008F8598896F89788D6817790708F077C013
:101D7000A98DBA8D1C92F2011082D3011C92329669
:101D8000108231961082319610828B899C89AD89A0
:101D9000BE898C549F4FAF4FBF4FE6E0B695A795D5
:101DA00097958795EA95D1F7880F991F880F991F06
:101DB000FC01E55FFC4F80819181A281B381892B79
:101DC0008A2B8B2BA9F1BE01655F7F4F4B0173E01E
:101DD000A72EB12CC12CD12CEB88FC880D891E8933
:101DE000298D3A8D4B8D5C8D61E0C1010E94751289
:101DF000811155C14B855C856D857E854B8B5C8BD8
:101E00006D8B7E8BBE01615F7F4FC1010E94400AD6
:101E1000811145C18F8598896F89788D68177907F9
:101E200030F511E063E0462E512C612C712C23C05B
:101E30004B895C896D897E894C325105610571053C
:101E400008F0C1CF4B895C896D897E894F5F5F4FF8
:101E50006F4F7F4F4B8B5C8B6D8B7E8B96CF10E0E3
:101E6000412C512C3201C12CD12C760108C010E03C
:101E7000412C512C3201C12CD12C7601C3948F8579
:101E800098896F89788D8617970708F0EEC01C2D0A
:101E900046E0E98DFA8D9E012F5F3F4FD9010190F9
:101EA0000D924A95E1F7AF89B88D8A1B9B0BAC0167
:101EB00060E070E049A35AA36BA37CA353E0452ED6
:101EC000512C612C712CB1016F5E7E4F7AA769A7EE
:101ED0002BA7032F9E01295F3F4F4B895C896D899A
:101EE0007E898B8D9C8D0E94F0118F809884A984AF
:101EF000BA847FEF87169706A706B70609F4CEC007
:101F0000A30192012F5F3F4F4F4F5F4F2D8F3E8FA9
:101F10004F8F58A3D501C4018C549F4FAF4FBF4F73
:101F200036E0B695A795979587953A95D1F7880F9E
:101F3000991F880F991FFC01E55FFC4F81E090E03D
:101F4000A0E0B0E04081518162817381452B462B36
:101F5000472B19F480E090E0DC018C159D05AE055F
:101F6000BF0509F09BC0D501C40123E0B695A79534
:101F7000979587952A95D1F7B501A4014770552704
:101F80006627772786309105A105B10508F086C040
:101F9000E98DFA8DE80FF91F21E030E001C0220F32
:101FA0004A95EAF73081232B2083698D7A8DC10110
:101FB0000E94EA0D811173C0BE01615F7F4FC101B4
:101FC0000E94400A81116BC08F8598894F89588D76
:101FD0008417950731F0AC016F89788D461B570B3C
:101FE00002C040E050E060E070E0AF89B88DA81713
:101FF000B907E0F489A19AA1ABA1BCA18417950708
:10200000A607B70770F5BE016F5F7F4FC1010E9441
:10201000EA0D96E0FE013196D101AF5EBE4F019010
:102020000D929A95E1F7882301F139C0D501C401D9
:102030000196A11DB11D8B8B9C8BAD8BBE8BE9A531
:10204000FAA5ABA5B02F86E001900D928A95E1F735
:102050004D8C5E8C6F8C78A049A35AA36BA37CA394
:1020600039CF4D8C5E8C6F8C78A0ADA1BEA14D9206
:102070005D926D927C921397EFA1F8A51083F10108
:10208000EC5FFE4F81E0808332978C918083AFA11B
:10209000B8A58C913196808380E001C08EECAB9620
:1020A0000FB6F894DEBF0FBECDBFDF91CF911F9169
:1020B0000F91FF90EF90DF90CF90BF90AF909F90E7
:1020C0008F907F906F905F904F903F902F900895EA
:1020D0001F93CF93DF9380915B078823A9F0E09152
:1020E0005D0791E09E0F90935D07F0E0EE0FFF1FFC
:1020F000EA5DF84F35892689815080935B079031DE
:10210000C9F410925D0716C090913807992319F110
:10211000E0913A0781E08E0F80933A07F0E0EA5DA4
:10212000F84F1281915090933807803131F410921A
:102130003A0703C0832F922F15C08BE50E94B50983
:10214000282F30E0D22FCC27812F0E94B5099E0185
:10215000282BC90107C08AE50E94B509282F30E065
:1021600010E0F0CFDF91CF911F9108954F925F92D1
:102170006F927F928F929F92AF92BF92CF92DF9297
:10218000EF92FF920F931F93CF93DF93C82FB62E3A
:102190004A0189010E946A226B017C01D1E0D0933F
:1021A0001804C0933A041092190410923B046B2D4A
:1021B00082E295E00E9478020E947221D093180476
:1021C000C0933A041092190410923B0461E08C2FE2
:1021D0000E942721C0E02801612C712C909163049A
:1021E00080916404981781F10115110569F4540177
:1021F000AC0EB11CC7FDBA9482E295E00E942C029D
:10220000F5018083CF5FEACF0E946A22DC01CB0117
:102210008C199D09AE09BF0984159505A605B7055A
:1022200030F30E946A22DC01CB018C199D09AE09B2
:10223000BF0920E030E080179107A207B30738F00C
:102240001C162CF0CFEF03C00115110551F78C2F90
:10225000DF91CF911F910F91FF90EF90DF90CF9082
:10226000BF90AF909F908F907F906F905F904F90B6
:102270000895AF92BF92CF92DF92EF92FF920F93A9
:102280001F93CF93DF931F921F92CDB7DEB77C01D0
:102290005B016A01198241E06FEF2A830E946F1887
:1022A000182F40E060E0C7010E946F18182B40E033
:1022B0006FEFC7010E946F18182B2A81222331F07B
:1022C000A5016BECC7010E94F817182B002341F001
:1022D000AE014F5F5F4F6EEEC7010E94F817182BDB
:1022E00041E06FEFC7010E946F18182B41E060E0DA
:1022F000C7010E946F18182B40E06FEFC7010E94C2
:102300006F1899819F7EF6019083812B0F900F901B
:10231000DF91CF911F910F91FF90EF90DF90CF90C1
:10232000BF90AF900895EF92FF920F931F93CF93BA
:10233000DF931F92CDB7DEB77C0100E041E06BE098
:10234000C7010E946F18182F40E06BE0C7010E9480
:102350006F18182BAE014F5F5F4F63E1C7010E94FA
:10236000F817912F982B0F5F8981877029F0033020
:1023700029F0992319F303C0033009F494EF892F4E
:102380000F90DF91CF911F910F91FF90EF900895E3
:102390000F931F93CF93DF931F921F92CDB7DEB79A
:1023A000FC01E253FF4F20812150233088F48C013F
:1023B000AE014F5F5F4F6EE00E94C917811109C0E7
:1023C000AE014F5F5F4F6CE0C8010E94C91701C0AA
:1023D00080E00F900F90DF91CF911F910F910895A2
:1023E0004F925F926F927F928F929F92AF92BF9225
:1023F000CF92DF92EF92FF920F931F93CF93DF93D1
:10240000EC01F9010FEF1FEF980100831183228384
:1024100033834A015B0183E0B694A7949794879431
:102420008A95D1F78A019B0107701127222733274C
:102430002401350193E0440C551C661C771C9A95C9
:10244000D1F77501640140E086E0C816D104E104CB
:10245000F104D0F5411138C0DE01AC0DBD1D6C9109
:10246000C814D904EA04FB0451F470E0002E02C041
:10247000759567950A94E2F7D901C80103C080E019
:1024800090E0DC0160FF0CC0AC01BD01440D551DA6
:10249000661D771D408351836283738341E009C0C9
:1024A00066950196A11DB11D88309105A105B10564
:1024B00049F78FEFC81AD80AE80AF80A88E0480EE8
:1024C000511C611C711CC0CFDF91CF911F910F91E6
:1024D000FF90EF90DF90CF90BF90AF909F908F9044
:1024E0007F906F905F904F9008952F923F924F9200
:1024F0005F926F927F928F929F92AF92BF92CF9294
:10250000DF92EF92FF920F931F93CF93DF93CDB79C
:10251000DEB764970FB6F894DEBF0FBECDBF1C01C7
:10252000698B5B8B4A8B388B2F8727013801EF82B1
:10253000F88609871A871B861C861D861E86EE2450
:10254000E394F12C8B859C85AD85BE858A159B0512
:10255000AC05BD0509F468C09E01295F3F4FB3017A
:10256000A2018A899B890E94F0118F819885A98593
:10257000BA858F3F2FEF9207A207B20709F456C022
:10258000AC01BD014C545F4F6F4F7F4FE6E0769535
:10259000679557954795EA95D1F7440F551F440F16
:1025A000551FFA01E55FFC4F21E0408151816281B6
:1025B0007381452B462B472B09F420E039892313DF
:1025C00035C08C019D0143E03695279517950795F9
:1025D0004A95D1F7AC01BD0147705527662777278B
:1025E000063011052105310560F4EF85F889E00F0B
:1025F000F11F970101C0220F4A95EAF73081232B82
:1026000020832C013D01EFEF4E1A5E0A6E0A7E0A0E
:102610008B859C85AD85BE850196A11DB11D8B87DF
:102620009C87AD87BE878ECF70E001C07EECD40161
:102630004D925D926D927C92139771112AC06F85B5
:102640007889C1010E94EA0D782F811122C0F10121
:10265000EF5BFE4F06E010E020E030E0AE014F5FA0
:102660005F4F60EB80817C8B0E94F5167C89892B03
:1026700009F07CEEAF85B889FE013196CE01079650
:102680003D912191321304C0E817F907C9F701C041
:102690007EEC872F64960FB6F894DEBF0FBECDBFD9
:1026A000DF91CF911F910F91FF90EF90DF90CF902E
:1026B000BF90AF909F908F907F906F905F904F9062
:1026C0003F902F900895CF93DF93EA0191E090938C
:1026D000180480933A041092190410923B0482E289
:1026E00095E00E947802688182E295E00E9478027B
:1026F0000E94722191E0811190E0892FDF91CF91AA
:1027000008958F929F92AF92BF92CF92DF92EF92F5
:10271000FF920F931F93CF93DF9380915E078111F8
:1027200035C00FEF1FEF0E946810EC01009749F4CD
:10273000012B11F08E01F7CF83E290E00197F1F7C2
:10274000C5C085352AEA920741F405351A4A91F742
:102750001092600710925F071BC08635EAEA9E0759
:1027600051F405351A4A31F781E090E09093600703
:1027700080935F070DC08A3A9545E1F684EA93E0BD
:102780000E94112080E00E94B509D4CF10925E070C
:1027900010926207109261070CE0CC24C394D12CF4
:1027A00080916107909162078238910508F08EC090
:1027B0000E946810EC01C5358AEAD80741F481E02F
:1027C00080935E071092600710925F077FC0C63546
:1027D000EAEADE0751F481E080935E0781E090E051
:1027E0009093600780935F0771C0209709F46EC0D3
:1027F000209163073091640780916107909162078F
:1028000028173907A8F4225E3F4F309364072093BE
:102810006307029FB001039F700D1124809126076A
:10282000909127070E942A2D9093270780932607CF
:102830002091610730916207029FC001039F900DB4
:102840001124E0902607F0902707E80EF91E4701B3
:10285000A12CB12C10E080915F0790916007892B2B
:1028600031F4153021F4F701138612860BC00E9453
:102870006810A80EB91EF401819391934F011F5F58
:10288000163049F7CA15DB0551F480916107909124
:1028900062070196909362078093610704C08CEAF7
:1028A00093E00E9411200E9468108535FAEA9F0784
:1028B00029F41092600710925F0772CF86359A4A0A
:1028C00029F4D0926007C0925F076ACFE091260793
:1028D000F0912707848595859093150480931404BF
:1028E000868597859093130480931204808991893B
:1028F000909317048093160482899389909311040E
:10290000809310048489958990930F0480930E041A
:10291000DF91CF911F910F91FF90EF90DF90CF90BB
:10292000BF90AF909F908F900895DF92EF92FF92AB
:102930000F931F93CF93DF931F921F92CDB7DEB7F4
:10294000182FF62EE42ED22E28EE33E0AE014E5F85
:102950005F4F0E94B610882349F14E2D50E04D196B
:1029600051094F5F5F4F21E030E002C0220F331F5B
:10297000DA94E2F721503109042E01C0220F0A94A3
:10298000EAF7802F01C0880F4A95EAF7022F0095D9
:102990009A8109232823202B2A832983AE014F5FA4
:1029A0005F4F6F2D812F0E94631301C080E00F9055
:1029B0000F90DF91CF911F910F91FF90EF90DF90DB
:1029C0000895362F90E0FC01EC59FD4F4491FC0135
:1029D000E655FD4F2491FC01E65FFC4F949199234D
:1029E00009F46BC0442309F455C050E0FA01319753
:1029F000E231F10508F04EC08827E157FF4F8F4FB5
:102A00000C94522B809180008F7707C080918000BA
:102A10008F7D03C080918000877F809380003AC0C3
:102A200084B58F7702C084B58F7D84BD33C080911B
:102A3000B0008F7703C08091B0008F7D8093B0008D
:102A400029C0809190008F7707C0809190008F7D82
:102A500003C080919000877F809390001BC080917D
:102A6000A0008F7707C08091A0008F7D03C0809168
:102A7000A000877F8093A0000DC0809120018F77F8
:102A800007C0809120018F7D03C080912001877F46
:102A900080932001E92FF0E0EE0FFF1FE051FD4F82
:102AA000A591B4918FB7F894EC91311103C02095A2
:102AB0002E2301C02E2B2C938FBF0895CF92DF922F
:102AC000EF92FF920F931F93CF93DF936C017A01E4
:102AD0008B01C0E0D0E0CE15DF0589F0D8016D9103
:102AE0008D01D601ED91FC910190F081E02DC601A0
:102AF0001995892B11F47E0102C02196ECCFC701F4
:102B0000DF91CF911F910F91FF90EF90DF90CF90C9
:102B10000895FC01538D448D252F30E0842F90E0E3
:102B2000821B930B541710F0CF96089501970895C8
:102B3000FC01918D828D981761F0828DDF01A80FC5
:102B4000B11D5D968C91928D9F5F9F73928F90E0E7
:102B500008958FEF9FEF0895FC01918D828D981756
:102B600031F0828DE80FF11D858D90E008958FEF93
:102B70009FEF0895FC01918D228D892F90E0805C5C
:102B80009F4F821B91098F739927089585E894E0E0
:102B90000E94BA1521E0892B09F420E0822F0895C4
:102BA000FC01848DDF01A80FB11DA35ABF4F2C91EA
:102BB000848D90E001968F739927848FA689B789B9
:102BC0002C93A089B1898C9180648C93938D848D92
:102BD000981306C00288F389E02D80818F7D808361
:102BE0000895EF92FF920F931F93CF93DF93EC0121
:102BF00081E0888F9B8D8C8D981305C0E889F989B9
:102C0000808185FD24C0F62E0B8D10E00F5F1F4FD5
:102C10000F731127E02E8C8DE8120CC00FB607FC45
:102C2000FACFE889F989808185FFF5CFCE010E942E
:102C3000D015F1CF8B8DFE01E80FF11DE35AFF4F48
:102C4000F0820B8FEA89FB898081806207C0EE8960
:102C5000FF896083E889F98980818064808381E0CD
:102C600090E0DF91CF911F910F91FF90EF90089529
:102C7000CF93DF93EC01888D8823C9F0EA89FB8923
:102C8000808185FD05C0A889B9898C9186FD0FC01A
:102C90000FB607FCF5CF808185FFF2CFA889B989EF
:102CA0008C9185FFEDCFCE010E94D015E7CFDF914B
:102CB000CF91089580E090E0892B21F00E94C61505
:102CC000811125C080E090E0892B41F080E090E008
:102CD000892B21F00E94000081111CC080E090E04F
:102CE000892B41F080E090E0892B21F00E940000C8
:102CF000811113C080E090E0892BA1F080E090E08A
:102D0000892B81F00E94000081110AC008950E9461
:102D10000000D8CF0E940000E1CF0E940000EACF5F
:102D20000C94000008950E94132E1F920F920FB66C
:102D30000F9211240BB60F922F933F934F935F93F3
:102D40006F937F938F939F93AF93BF93EF93FF9373
:102D500085E894E00E94D015FF91EF91BF91AF916B
:102D60009F918F917F916F915F914F913F912F91A3
:102D70000F900BBE0F900FBE0F901F9018951F92D3
:102D80000F920FB60F9211240BB60F922F938F93C1
:102D90009F93EF93FF93E0919504F09196048081C7
:102DA000E0919B04F0919C0482FD12C0908180917F
:102DB0009E048F5F8F7320919F04821751F0E091E2
:102DC0009E04F0E0EB57FB4F958F80939E0401C06B
:102DD0008081FF91EF919F918F912F910F900BBE6A
:102DE0000F900FBE0F901F901895AF92BF92CF9289
:102DF000DF92EF92FF920F931F93CF93DF931F9277
:102E00001F92CDB7DEB7F82E5A0181E080931804E7
:102E1000F0923A041092190410923B0482E295E079
:102E200029833A830E9478020E947221602F8F2D9D
:102E30000E94272168012981E22E3A81F32EC114D4
:102E4000D104E104F10469F082E295E00E942C02D1
:102E5000F50181935F01F1E0CF1AD108E108F10893
:102E6000EECF80E090E00F900F90DF91CF911F9117
:102E70000F91FF90EF90DF90CF90BF90AF900895AB
:102E8000AF92BF92CF92DF92EF92FF920F931F9378
:102E9000CF93DF931F921F92CDB7DEB75A0191E017
:102EA0009093180480933A041092190410923B04F2
:102EB00082E295E029833A830E94780268012981A1
:102EC000E22E3A81F32EC114D104E104F10469F039
:102ED000F50161915F0182E295E00E947802F1E0E4
:102EE000CF1AD108E108F108EECF0E94722180E0EC
:102EF00090E00F900F90DF91CF911F910F91FF9075
:102F0000EF90DF90CF90BF90AF900895EF92FF9237
:102F10000F931F93CF93DF9300D01F92CDB7DEB7EF
:102F20007A01FC01EF5BFE4F04E010E020E030E0AE
:102F3000AE014F5F5F4F80810E94F516098110E05E
:102F400020E030E0322F212F102F00274A81042B60
:102F5000322F212F102F00274B81042B322F212FAE
:102F6000102F00274C81042BF7010083118322834B
:102F70003383892B11F08CEE01C080E00F900F900D
:102F80000F900F90DF91CF911F910F91FF90EF90D5
:102F90000895EF92FF920F931F93CF93DF931F92A9
:102FA0001F92CDB7DEB77A01FC01EF5BFE4F02E066
:102FB00010E020E030E0AE014F5F5F4F80810E9463
:102FC000F516298130E0322F22274A81242BF70180
:102FD00031832083892B11F08CEE01C080E00F90AB
:102FE0000F90DF91CF911F910F91FF90EF90089577
:102FF0000F931F93FC01EF5BFE4F01E010E020E018
:1030000030E080810E94F516892B11F08CEE01C012
:1030100080E01F910F910895CF92DF92EF92FF927F
:103020000F931F93CF93DF931F921F92CDB7DEB7FD
:10303000D62EC42EF22EFC01EF5BFE4FE08001E0A5
:1030400010E020E030E0AE014E5F5F4F8E2D0E9419
:10305000F516892BA9F49A812C2D29232F292A834F
:10306000298301E010E020E030E0AE014F5F5F4FC8
:103070006D2D8E2D0E944017892B11F480E001C028
:103080008CEE0F900F90DF91CF911F910F91FF90D9
:10309000EF90DF90CF9008950F931F93CF93DF931E
:1030A0001F921F92CDB7DEB7FC01EF5BFE4F808110
:1030B0004A83598302E010E020E030E0AE014F5F28
:1030C0005F4F0E944017892B11F08CEE01C080E009
:1030D0000F900F90DF91CF911F910F9108950F9353
:1030E0001F93CF93DF931F92CDB7DEB7FC01EF5B49
:1030F000FE4F8081498301E010E020E030E0AE0126
:103100004F5F5F4F0E944017892B11F08CEE01C07A
:1031100080E00F90DF91CF911F910F9108952F9232
:103120003F924F925F926F927F928F929F92AF9257
:10313000BF92CF92DF92EF92FF920F931F93CF93A4
:10314000DF93CDB7DEB727970FB6F894DEBF0FBE7B
:10315000CDBF6B0120E030E070E01C014FEB241A82
:103160004EEF340A2C01ADED4A1AAEEF5A0A3C017B
:10317000BFED6B1ABEEF7B0A4C01EBED8E1AEEEF42
:103180009E0A5C01F8EDAF1AFEEFBF0AF601E20FEE
:10319000F31F0081002309F495C0711193C07901D8
:1031A0004FEFE41AF40A0F3F09F055C0D601AE0DF7
:1031B000BF1D8C91790192E0E90EF11C813031F153
:1031C000A8F0823099F1833009F079C0D601AE0DB4
:1031D000BF1D8C91790144E0E40EF11C90E0982F22
:1031E00088272381820F911DD50132C0D601AE0DF3
:1031F000BF1D8C917901A4E0EA0EF11C90E0982F9C
:1032000088272381820F911DF3011FC0D601AE0DC7
:10321000BF1D8C91790144E0E40EF11C90E0982FE1
:1032200088272381820F911DD20112C0D601AE0DD5
:10323000BF1D8C917901B4E0EB0EF11C90E0982F4A
:1032400088272381820F911DF4019183808338C0E8
:103250008D939C9335C0053090F5D601AE0DBF1D02
:103260006C917901B2E0EB0EF11CCE0101969F83C7
:103270008E8380E090E0202F30E0821793076CF47B
:10328000AF01480F591FDA0112964C91AE81BF81F0
:103290004D93BF83AE830196F0CFE20EF31E10E094
:1032A00020E030E0AE014F5F5F4FF10180817D8310
:1032B0000E9440177D81892B19F07CEE01C07CEFC4
:1032C000970164CF872F27960FB6F894DEBF0FBE05
:1032D000CDBFDF91CF911F910F91FF90EF90DF90C5
:1032E000CF90BF90AF909F908F907F906F905F90A6
:1032F0004F903F902F9008952F923F924F925F9260
:103300006F927F928F929F92AF92BF92CF92DF92F5
:10331000EF92FF920F931F93CF93DF93CDB7DEB75A
:1033200065970FB6F894DEBF0FBECDBF00ED17E076
:1033300020E030E00F87188B298B3A8B1B861C8688
:103340001D861E8640322EE452076105710508F481
:1033500021C14A015B018C01BE016A5F7F4F0E945F
:10336000B604811118C12401350188EE481A88E09D
:10337000580A610871088E81811107C08F818111FF
:1033800004C08885882309F443C0AE01415F5F4FC4
:1033900062E0C8010E940A1B8111FDC08E81882352
:1033A00091F08F859889A989BA89825B9D4FAF4F2B
:1033B000BF4F84159505A605B70508F0EBC0481A60
:1033C000590A6A0A7B0A8885882369F08F8598895B
:1033D000A989BA898E549D4FAF4FBF4F880F991F4F
:1033E000AA1FBB1F0BC08F81882391F08F859889FE
:1033F000A989BA898C569D4FAF4FBF4F841595054B
:10340000A605B70508F0C6C0481A590A6A0A7B0A19
:1034100089858823D9F0AE01455F5F4F63E0C8011D
:103420000E940A1B4B855C856D857E854C565D4FE1
:103430006F4F7F4F441555056605770508F0AAC004
:103440008111A9C0441A550A660A770A8A85882319
:1034500009F49EC0BE016F5F7F4FC8010E94B60491
:103460008C81882329F1AE014B5E5F4F60E0C8017B
:103470000E94E41A811186C0AE014D5E5F4F61E586
:10348000C8010E94C917EB89FC8981117BC0AF017B
:10349000552760E070E004C0440F551F661F771F7A
:1034A000FA95D2F74F5F5F4F6F4F7F4F1A0102C0FF
:1034B000212C312CAE014B5E5F4F61E0C8010E94B0
:1034C000E41A81115FC0E6E24E1AE2E05E0A61088A
:1034D0007108AD89B0E020E03FE24AE350E00E948D
:1034E000DE2A6C507E4F8F4F9F4F28EE33E040E036
:1034F00050E00E94E92A69017A01A8EEB3E0A30135
:1035000092010E94DE2AA7019601569547953795AC
:103510002795620F731F841F951FA70196010E94B4
:10352000E92A220D331D21153105E9F0A90160E0DA
:1035300070E04150510961097109E12CF12CDB0166
:10354000CA018827892B8A2B8B2B41F076956795AA
:1035500057954795FFEFEF1AFF0AF1CFFE2CEE24A7
:103560004E0D5F1D02C040E050E061E7C8010E94BF
:103570004C18811107C0F801E153FF4F408251827E
:1035800062827382F801828A938AA48AB58A03C010
:1035900080E001C08CEF65960FB6F894DEBF0FBED9
:1035A000CDBFDF91CF911F910F91FF90EF90DF90F2
:1035B000CF90BF90AF909F908F907F906F905F90D3
:1035C0004F903F902F9008950F931F93CF93DF93C9
:1035D0001F92CDB7DEB78A01662339F0613099F4C6
:1035E000AE014F5F5F4F60E704C0AE014F5F5F4FBA
:1035F00060E50E94F817811107C099819F5F990FBC
:10360000F801908301C08CEF0F90DF91CF911F9153
:103610000F9108952F923F924F925F926F927F92F7
:103620008F929F92AF92BF92CF92DF92EF92FF92D2
:103630001F93CF93DF93CDB7DEB72B970FB6F894D8
:10364000DEBF0FBECDBF6C011A011A86198618861F
:10365000633008F041C0AE01455F5F4F60E00E94FB
:10366000E41A182F811108C0AE01465F5F4F66E46F
:10367000C6010E94F817182FAB85B0E020E03FE2AA
:103680004AE350E00E94DE2A6C507E4F8F4F9F4FDE
:10369000E8EECE2EE3E0DE2EE12CF12CA701960120
:1036A0000E94E92A29013A01769467945794479435
:1036B0006A85862F90E0A0E0B0E0BC01CD016F5F8D
:1036C0007F4F8F4F9F4F0E941A2B640D751D861DD3
:1036D000971DA7019601DDC0633009F057C0AE0108
:1036E000455F5F4F60E00E94E41A182F8111D4C03B
:1036F000AE01455F5F4F60E0C6010E94E41A182FDB
:10370000811108C0AE01485F5F4F61E5C6010E94AC
:10371000C917182FA884B984AB85B0E020E03FE238
:103720004AE350E00E94DE2A6C507E4F8F4F9F4F3D
:1037300048EE442E43E0542E612C712CA3019201DB
:103740000E94E92A69017A0195013327C901A0E0A5
:10375000B0E004C0880F991FAA1FBB1FBA94D2F70C
:103760000196A11DB11D9C01AD0144275527C7013C
:10377000B6010E941A2BF694E794D794C7946C0D67
:103780007D1D8E1D9F1DA301920183C0643009F031
:1037900087C0BE016F5F7F4F0E94B6048C81882373
:1037A00031F1AE01455F5F4F60E0C6010E94E41A4F
:1037B000182F811143C0AE01485F5F4F61E5C6011C
:1037C0000E94C917182F28853985C9019927A0E0BB
:1037D000B0E004C0880F991FAA1FBB1F3A95D2F70B
:1037E0000196A11DB11D7C0111112AC002C0E12C5E
:1037F000F12CAE01455F5F4F61E0C6010E94E41A03
:10380000182F81111DC0AE014A5F5F4F61E7C601ED
:103810000E94C917182F2E813F81D901BB27CD01E6
:10382000A0E0B0E004C0880F991FAA1FBB1F3A9503
:10383000D2F70196A11DB11D6C0104C0E12CF12C41
:10384000C12CD12CAB85B0E020E03FE24AE350E050
:103850000E94DE2A6C507E4F8F4F9F4F28EE822EA3
:1038600023E0922EA12CB12CA50194010E94E92AFB
:1038700029013A01D601AE19BF090E94DE2A7694C9
:10388000679457944794640D751D861D971DA50177
:1038900094010E94E92A08C020E030E0A90104C098
:1038A00020E030E0A90110E0F10120833183428360
:1038B0005383812F2B960FB6F894DEBF0FBECDBF7A
:1038C000DF91CF911F91FF90EF90DF90CF90BF904D
:1038D000AF909F908F907F906F905F904F903F90B0
:1038E0002F9008952F923F924F925F926F927F9206
:1038F0008F929F92AF92BF92CF92DF92EF92FF9200
:103900000F931F93CF93DF93CDB7DEB7E0970FB63A
:10391000F894DEBF0FBECDBF1AA21BA21CA21DA22F
:103920001E8E1F8E18A219A26C012FEDC20ED11C83
:10393000F6017080F7E07F1609F4DAC2E62E8C01FA
:1039400041E060E80E946F18F82E41E06FEFC80177
:103950000E946F18F82A40E060E0C8010E946F18CA
:10396000F82A46E06FEFC8010E946F18F82AAE01EE
:10397000445D5F4F63E8C8010E94F817F82A4CA520
:10398000446063E8C8010E946F18F82A47E06FEFAF
:10399000C8010E946F18F82A41E061E8C8010E943E
:1039A0006F18F82A1A8E1B8E1C8E1D8E8A8D9B8D89
:1039B000AC8DBD8D8A3F9105A105B10568F400006D
:1039C0008A8D9B8DAC8DBD8D0196A11DB11D8A8FF9
:1039D0009B8FAC8FBD8FEACF41E060E8C8010E94A9
:1039E0006F18F82A2E2D21702EA7E0FE57C070FC0C
:1039F00055C04BE664E9C8010E946F18B82EC80193
:103A00000E94420D8B29F82AAE014A5D5F4F60E9A2
:103A1000C8010E948617F82A8EA19FA1A8A5B9A562
:103A2000292F2F772DA74FE0B695A79597958795C6
:103A30004A95D1F7E82FE1706E2E44E264E9C8019F
:103A40000E946F18F82AC8010E94420DF82AAE01A0
:103A50004A5D5F4F60E9C8010E948617F82A8EA16F
:103A60009FA128A539A53C8B2D8B9E8B8F8B45E282
:103A700064E9C8010E946F18F82AC8010E94420D2B
:103A8000F82AAE014A5D5F4F60E9C8010E948617BF
:103A9000F82A88A599A5988F898F02C0612C1DA648
:103AA0002E2D22702FA7E1FE44C171FC42C142E0DD
:103AB00064E9C8010E946F18B82EC8010E94420D27
:103AC0008B29F82AAE01455D5F4F60E9C8010E946D
:103AD000F817F82A4BE764E9C8010E946F18F82A22
:103AE000C8010E94420DF82AAE01465D5F4F60E9B1
:103AF000C8010E94F817F82A47E764E9C8010E9444
:103B00006F18F82AC8010E94420DF82AAE014A5DDA
:103B10005F4F60E9C8010E948617F82A4EA15FA195
:103B200068A579A5DB01CA01E9E1B695A795979546
:103B30008795EA95D1F78983DB01CA01F2E1B69551
:103B4000A79597958795FA95D1F78F778A83DB01AB
:103B5000CA012BE0B695A795979587952A95D1F739
:103B60008F778B83DB01CA0134E0B695A7959795D3
:103B700087953A95D1F78F778C834F70440F440F18
:103B8000440F4CA748E764E9C8010E946F18F82A5F
:103B9000C8010E94420DF82AAE014A5D5F4F60E9FC
:103BA000C8010E948617F82A8EA19FA1A8A5B9A5D1
:103BB000AC01BD01EDE17695679557954795EA957E
:103BC000D1F72CA5420F4D83AC01BD01F6E17695EE
:103BD000679557954795FA95D1F74F774E83AC0186
:103BE000BD012FE076956795579547952A95D1F7B2
:103BF0004F774F83292F2F772887AC01BD0176950A
:103C00006795579547954F774987982F917092956B
:103C1000990F990F907C9CA749E764E9C8010E941D
:103C20006F18F82AC8010E94420DF82AAE014A5DB9
:103C30005F4F60E9C8010E948617F82A8EA19FA1F4
:103C4000A8A5B9A5AC01BD01EAE1769567955795A0
:103C50004795EA95D1F72CA5420F4A87AC01BD01E3
:103C6000F3E17695679557954795FA95D1F74F7794
:103C70004B87AC01BD012CE076956795579547952C
:103C80002A95D1F74F774C87AC01BD0135E0769589
:103C90006795579547953A95D1F74F774D87982F68
:103CA0009F71990F990F9CA74AE764E9C8010E9488
:103CB0006F18F82AC8010E94420DF82AAE014A5D29
:103CC0005F4F60E9C8010E948617F82A8EA19FA164
:103CD000A8A5B9A5AC01BD01EEE17695679557950C
:103CE0004795EA95D1F72CA5420F4E87AC01BD014F
:103CF000F7E17695679557954795FA95D1F74F7700
:103D00004F872A2F2F77288BAC01BD0129E07695AC
:103D10006795579547952A95D1F74F77498B32E0AC
:103D2000B695A795979587953A95D1F78F778A8B12
:103D30001B8A2E2D247028ABE2FE9EC072FC9CC014
:103D40004BE764E9C8010E946F18B82EC8010E94B1
:103D5000420D8B29F82AAE014E5D5F4F60E9C80124
:103D60000E948617F82A4CE764E9C8010E946F1880
:103D7000F82AC8010E94420DF82AAE01425E5F4F48
:103D800060E9C8010E948617F82A43E764E9C80180
:103D90000E946F18F82AC8010E94420DF82AAE014D
:103DA0004A5D5F4F60E9C8010E948617F82A8EA01D
:103DB0009FA0A8A4B9A4BA2CA92C982C8824AA2422
:103DC000BB2444E764E9C8010E946F18F82AC801BF
:103DD0000E94420DF82AAE014A5D5F4F60E9C801BA
:103DE0000E948617F82A8EA19FA1A8A5B9A58B2F9E
:103DF0009927AA27BB27882A992AAA2ABB2A45E7F6
:103E000064E9C8010E946F18F82AC8010E94420D97
:103E1000F82AAE014A5D5F4F60E9C8010E9486172B
:103E2000F82A8EA19FA1A8A5B9A5BA2FA92F982FCE
:103E300088271C012D014424552446E764E9C80164
:103E40000E946F18F82AC8010E94420DF82AAE019C
:103E50004A5D5F4F60E9C8010E948617F82A8EA16B
:103E60009FA1A8A5B9A58B2F9927AA27BB27282AE8
:103E7000392A4A2A5B2A06C0812C912C5401212C14
:103E8000312C210140E061E8C8010E946F18F82A36
:103E900046E06FEFC8010E946F18F82AAE01445D3A
:103EA0005F4F63E8C8010E94F817F82A4CA54B7FC2
:103EB00063E8C8010E946F18F82A41E06FEFC8015B
:103EC0000E946F18F82A41E060E0C8010E946F1854
:103ED000F82A40E06FEFC8010E946F18F82A40E00E
:103EE00060E8C8010E946F18F82A09F080C002C07B
:103EF000F12C7DC02EA5222311F070FE04C02FA549
:103F0000211114C025C0F801EE5FFE4F2DA52083BE
:103F100031966082DE0154967496C801835E9E4F8E
:103F20002D912193E817F907D9F7E9CF71FC10C05B
:103F30008BA5F801E052FF4F80838AA531968083DC
:103F4000BE016F5F7F4FC8018E519F4F0E94212E8F
:103F500028A9222309F448C072FC46C08AA19BA16B
:103F6000ACA1BDA1F801EB5FFE4F80839183A283DA
:103F7000B3838E8D9F8DA8A1B9A134968083918340
:103F8000A283B383349639E0880C991CAA1CBB1C0D
:103F90003A95D1F780829182A282B38221143104B2
:103FA00041045104B1F0A201910139514109510973
:103FB000A8EEB3E00E94DE2ADC01CB0124E0B69536
:103FC000A795979587952A95D1F791958195910910
:103FD00002C080E090E0092E000CAA0BBB0BF80198
:103FE00084879587A687B787E728F601E0828F2D1B
:103FF000E0960FB6F894DEBF0FBECDBFDF91CF9134
:104000001F910F91FF90EF90DF90CF90BF90AF90F6
:104010009F908F907F906F905F904F903F902F90E8
:104020000895CF93DF93009779F0FC010190002071
:10403000E9F73197AF01481B590BBC0185E894E0C3
:104040000E945E15EC0102C0C0E0D0E042E050E00A
:1040500065EB73E085E894E00E945E158C0F9D1F70
:10406000DF91CF9108950F931F93CF93DF93CDB737
:10407000DEB729970FB6F894DEBF0FBECDBF0E9402
:104080000B2200911F0710912007209121073091EA
:104090002207DC01CB01801B910BA20BB30B8C32EE
:1040A0009140A105B10558F3F894809115079091BE
:1040B00016079A838983E0911907F0911A07DF01A7
:1040C00011968081898790911107E0912307F091E3
:1040D000240780912507992309F42EC09081982BFD
:1040E00098879081809589238F838F818C8388E046
:1040F0008B8358856F8149853B812C8189819A8189
:10410000508347FD252F3A952083262F39F0441FF1
:1041100000C000006083000000C0F2CF38E04D9185
:1041200060830000019761F7F0932407E093230771
:1041300049873B832C8338C09081982B9887908146
:10414000809589238F838F818E8388E08D83588526
:104150006F8149853D812E8189819A81508347FDF8
:10416000252F00C000C0208300C000C000C000C0D8
:1041700000C060830000262F3A9541F0441F0000E4
:1041800000C000C000C000C000C0E8CF38E04D91C2
:1041900000C0608300C0019709F7F0932407E09303
:1041A000230749873D832E839A83898378940E94CD
:1041B0000B2260931F077093200780932107909331
:1041C000220729960FB6F894DEBF0FBECDBFDF9150
:1041D000CF911F910F9108954AE550E064E970E096
:1041E0008DEE90E00E94ED078091190790911A07DB
:1041F000892B11F00C94332008950F931F93CF93C4
:10420000DF938C01C0E0D0E0F801EC0FFD1F64915A
:10421000662371F0E0918504F09186040190F081AD
:10422000E02D85E894E01995892B11F02196ECCFCB
:1042300042E050E065EB73E085E894E00E945E1593
:104240008C0F9D1FDF91CF911F910F910895909139
:1042500062049111FCCF613208F060E291E090932A
:104260006204909361042FEF2093600410925F0426
:10427000260F20935E0490935D0490915D04880F57
:10428000892B80935D0480915C04813061F41092ED
:104290005C0480915D048093BB008091BC0083FD31
:1042A000F8CF85EC01C085EE8093BC00809162045C
:1042B0008130E1F380915F04861710F460915F0410
:1042C000ACE3B4E025E634E0F9018E2F821B8617BB
:1042D00018F48D918193F9CF109264046093630474
:1042E000862F089520913B0490913A04213208F0E2
:1042F0004AC0809162048111FCCF32E030936204A5
:1043000031E0309361043FEF3093600410925F041A
:1043100020935E04AAE1B4E04CE354E0FA013E2F9E
:10432000341B321718F43D913193F9CF10925D048C
:1043300020915D04990F922B90935D0490915C0401
:10434000913061F410925C0490915D049093BB00F5
:104350009091BC0093FDF8CF95EC01C095EE909341
:10436000BC00909162049230E1F3909160049F3F11
:1043700079F080916004803241F080916004803354
:1043800031F084E005C081E003C082E001C083E039
:104390001092190410923B04109218040895CF93C0
:1043A000DF9390E0FC01E655FD4F2491FC01E65FB0
:1043B000FC4F8491882361F190E0880F991FFC01E4
:1043C000E05BFC4FC591D491FC01E051FD4FA591FC
:1043D000B491611109C09FB7F89488812095822318
:1043E0008883EC912E230BC0623061F49FB7F89460
:1043F0003881822F809583238883EC912E2B2C93F8
:104400009FBF06C08FB7F894E8812E2B28838FBFFB
:10441000DF91CF9108953FB7F89480916A0790910A
:104420006B07A0916C07B0916D0726B5A89B05C0DE
:104430002F3F19F00196A11DB11D3FBFBA2FA92F23
:10444000982F8827820F911DA11DB11DBC01CD01A0
:1044500042E0660F771F881F991F4A95D1F708958C
:104460008F929F92AF92BF92CF92DF92EF92FF9284
:104470006B017C010E940B224B015C01C114D10431
:10448000E104F104F1F00E940B22DC01CB01881958
:104490009909AA09BB09883E9340A105B10570F3AB
:1044A00021E0C21AD108E108F10888EE880E83E005
:1044B000981EA11CB11CC114D104E104F10419F728
:1044C000DDCFFF90EF90DF90CF90BF90AF909F90A7
:1044D0008F9008952FB7F8946091660770916707E1
:1044E00080916807909169072FBF08951F920F92DE
:1044F0000FB60F9211242F933F938F939F93AF93F7
:10450000BF938091660790916707A0916807B0916B
:1045100069073091650723E0230F2D3720F40196BA
:10452000A11DB11D05C026E8230F0296A11DB11DD6
:10453000209365078093660790936707A0936807A9
:10454000B093690780916A0790916B07A0916C07FF
:10455000B0916D070196A11DB11D80936A079093DC
:104560006B07A0936C07B0936D07BF91AF919F91BC
:104570008F913F912F910F900FBE0F901F90189524
:10458000CF93DF93CDB7DEB7C854D1090FB6F894F7
:10459000DEBF0FBECDBF789484B5826084BD84B584
:1045A000816084BD85B5826085BD85B5816085BD2E
:1045B00080916E00816080936E00109281008091E6
:1045C000810082608093810080918100816080936E
:1045D0008100809180008160809380008091B10093
:1045E00084608093B1008091B00081608093B000BE
:1045F0008091910082608093910080919100816010
:1046000080939100809190008160809390008091D0
:10461000A10082608093A1008091A10081608093BD
:10462000A1008091A00081608093A0008091210171
:10463000826080932101809121018160809321011A
:104640008091200181608093200180917A008460B4
:1046500080937A0080917A00826080937A008091C2
:104660007A00816080937A0080917A0080688093DC
:104670007A001092C100E0919504F091960482E0D6
:104680008083E0919104F09192041082E091930470
:10469000F09194048FEC808310929D04E091990432
:1046A000F0919A0486E08083E0919704F091980459
:1046B000808180618083E0919704F09198048081EB
:1046C00088608083E0919704F091980480818068ED
:1046D0008083E0919704F091980480818F7D80839E
:1046E00010926404109263041092190410923B0417
:1046F0000E94CF071FB7F8948091B803811127C09B
:10470000EFE3F3E08491EFEDF2E09491E82FF0E035
:10471000EE0FFF1FE05BFC4FA591B491EC91E923F4
:1047200021F461E085E30E94E11461E085E30E94E9
:10473000CF218CB580618CBD8CB580648CBD61E06F
:1047400084E30E94CF2161E083E30E94CF21809126
:10475000B8038F5F8093B8031FBF8CB58C7F8160D7
:104760008CBD8DB58E7F8DBD01E023E042E06BE610
:1047700080914E050E94951400E022E044E06BE138
:1047800080914E050E94951422E044E06CE18091F6
:104790004E050E94951410914E0528EE33E0CE018F
:1047A00001962C01AC016BE6812F0E94B610998115
:1047B0009F7B998329969FAF2997AE01485B5F4FF6
:1047C0006BE6812F0E9463130EE315E0F801608110
:1047D0000E5F1F4F81E00E94CF21F5E006341F07D6
:1047E000A9F70EE215E07801F70180819181892B0C
:1047F00049F0F2E0EF0EF11C86E3E81685E0F806DA
:1048000099F70CC060E081E00E94CF21F701808120
:104810009181815B9C4F0E941120EBCFF801808534
:104820009185892B49F00E5F1F4FF5E006331F0776
:10483000A9F706E415E00CC060E081E00E94CF21FA
:10484000F80180859185815B9C4F0E941120EBCF00
:10485000F80160810E5F1F4F80E00E94CF21F5E0DC
:104860000E341F07A9F78091170787FD08C061E084
:104870000E94CF2160E0809117070E94E11481E03F
:10488000809312078091190790911A07892B11F0D4
:104890000E9433208091A3069091A406FC01EF5B57
:1048A000FE4F29E22083319621E02083319680E972
:1048B00091E09183808310926404109263041092BB
:1048C000190410923B040E94CF0721E04EEF69E8E3
:1048D0008EE595E00E940C18811106C040E068E862
:1048E0008EE595E00E946F18AE01455C5F4F60EC6D
:1048F0008EE595E00E94F81710923D0688EE93E051
:10490000909398068093970680E991E090939A0699
:104910008093990685E89BE6A1E0B0E080939B0632
:1049200090939C06A0939D06B0939E0684EA90E720
:10493000A9E0B0E08093260690932706A09328066E
:10494000B093290610927B0510927C0510927D058C
:1049500010927E05B2018EE595E00E94E304782E68
:1049600081110AC019821A828AE3F201AEE6B5E02B
:1049700001900D928A95E1F784E690E0909380068D
:1049800080937F0684E893E090938206809381066B
:1049900084EF91E0909384068093830680E09AE010
:1049A000909387068093860681E08093960641E087
:1049B00060E88EE595E00E946F18182F41E06FEFD8
:1049C0008EE595E00E946F18812B782A40E060E028
:1049D0008EE595E00E946F18782AAE01415C5F4F2A
:1049E00061E98EE595E00E94F817782A8FAD8093F3
:1049F000850641E060E08EE595E00E946F18782A18
:104A000040E06FEF8EE595E00E946F18782A40E055
:104A100060E88EE595E00E946F18782AFFE8CF2EB7
:104A2000F5E0DF2E00E010E0FF24F3947110AFC03A
:104A3000F60141915191619171916F01033011051E
:104A400009F138F40130110569F002301105B9F0AF
:104A500006C004301105C9F005301105C9F0F09207
:104A600083051FC0E9E07695679557954795EA95C8
:104A7000D1F764E48EE595E00E944C1810C0F092E6
:104A800085050FC0F09286050CC020E04EEF02C0F5
:104A900020E04FEE60E68EE595E00E940C18811153
:104AA00005C0F801E35AFA4FF6A201C0782E0F5F55
:104AB0001F4F0630110509F0B9CF711068C0109270
:104AC00085051092860522E04EEF60E68EE595E0C2
:104AD0000E940C18782E81115AC01092870520E18F
:104AE0004FEE60E68EE595E00E940C18782E81115D
:104AF0004EC01092880580E090E0A2E1B0E0809383
:104B00008F0590939005A0939105B09392058091A5
:104B10008405811132C080E090E4A0E0B0E0809391
:104B2000930590939405A0939505B093960580E026
:104B300090E0A3E2B0E08093970590939805A0934E
:104B40009905B0939A0510929B0510929C051092BE
:104B50009D0510929E058FEF80937B064FEF61E0DD
:104B60008EE595E00E946F18782E81E080937D0697
:104B700071100DC0109262060AC040E250E064E479
:104B80008EE595E00E944C18782E882321F27092D1
:104B90005D0549E26AE88091A3069091A4060E940F
:104BA0006F1880935D056AE070E080E090E00E94FD
:104BB000302280915D058111A9C1E091A306F09199
:104BC000A406EF5BFE4F89E2808362E08EE595E00C
:104BD0000E94721C811147C080913E06811107C05E
:104BE00067EB73E08EEE96E00E94212E0AC01091D2
:104BF0003F0660E476E08EEE96E00E94212E1111D1
:104C000003C063E673E00EC0133228F4103229F0BB
:104C10006FE673E007C0173218F46BE773E002C069
:104C200067E873E08EEA96E00E94212E6CE973E05B
:104C30008EEC96E00E94212E4EE057E060EC8EE56F
:104C400095E00E94F81781110EC0A20162EC8EE57A
:104C500095E00E94F81791E090930F079981929543
:104C60009F709093100780935D05811107C080911C
:104C70001007813019F08BEF80935D0580915D0501
:104C80008111C8C06090A3067090A4068AE3F20167
:104C900011928A95E9F725961FAE1EAE25972896A4
:104CA0001FAE289727961FAE279723961CAE1DAEE2
:104CB0001EAE1FAE239761E0C3010E94721CF30178
:104CC000EE5FFE4F2080A22CB12CC12CD12C31964E
:104CD0003080F1E0F31578F03F1207C081E2A816AA
:104CE000B104C104D10438F410C09DE0A916B10488
:104CF000C104D10450F0AE014A5B5F4FBE01615C5C
:104D00007F4FC3010E94000E68C041E06FEFC301F6
:104D10000E946F1881111AC040E06FE4C3010E9425
:104D20006F18811113C04CE26EE4C3010E946F182A
:104D300081110CC040E06FEFC3010E946F18811118
:104D400005C044EB66EBC3010E946F1893012F5E10
:104D50003E4FF901108231961082319610823196C1
:104D600010823196108231961082E12CF12C87014D
:104D70003320E9F0D801C7018C549F4FAF4FBF4F8C
:104D800056E0B695A795979587955A95D1F7880FD0
:104D9000991F880F991FFC01E55FFC4F808191816D
:104DA000A281B381892B8A2B8B2B09F477C1CE0189
:104DB000CB964C01A301495E5E4F632DC3010E9457
:104DC000751281110AC081E0F301EC5FFE4F808310
:104DD000329720823196308202C0811119C0F301CE
:104DE000E85CFE4F8081811104C03297608171813F
:104DF00002C060E072E0C3010E948F18811108C0F8
:104E000044E06AE0C3010E946F18882309F453C18B
:104E100080935D0580915D0581110CC0AE014D5BF5
:104E20005F4FB2018091A3069091A4060E94000EEC
:104E300080935D0580915D0581110FC021E0AE0179
:104E4000455C5F4FBE01615C7F4F8091A3069091EE
:104E5000A4060E947A0D80935D0580915D05811105
:104E600007C0E091A306F091A406108A10925D0598
:104E700080915D05811108C0E091A306F091A40620
:104E800081E085A310925D0580915D0581111BC0B5
:104E90000091A3061091A406F80145A956A967A997
:104EA00070AD39E076956795579547953A95D1F766
:104EB00064E4C8010E944C18811103C091E0F8011C
:104EC00096A380935D0580915D05811108C0E091F6
:104ED000A306F091A40681E080A710925D05809161
:104EE0005D0581110FC0E091A306F091A406FD9627
:104EF00084ED98E0A0E0B0E080839183A283B38347
:104F000010925D0580915D05882331F08DE492E07B
:104F10000E94FD200E94EC2028EE33E0A20165E70C
:104F200080914E050E94B610882339F089818E77D2
:104F300090E09595879580934F0580914F05843338
:104F400031F086E392E00E94FD200E94EC2040E0D8
:104F500050E0BA018AE090E00E94BD0888EE482E39
:104F600083E0582E612C712C0E94811320910E0435
:104F700030910F048091100490911104289F8001BA
:104F8000299F100D389F100D11241093C00300931A
:104F9000BF037801F8E1EF1AFCEFFF0AF092BE03BD
:104FA000E092BD03680188EEC81A83E0D80AD09267
:104FB000BC03C092BB038091140490911504029726
:104FC000D9F51093BA030093B903C801B7010E9441
:104FD0003E2B2FEF30E0DB010E945A2BA301920100
:104FE0000E94BF2ACA01B9010E94992BAB01BC01E2
:104FF00080911204909113048634910518F483E093
:1050000090E017C0893C910518F087E090E011C04E
:105010000C151D0518F480E090E00BC0E016F106B9
:1050200018F481E090E005C040E050E0BA018AE069
:1050300090E00E94BD0802C00E9481130E946A2273
:10504000C090C303D090C403E090C503F090C603A2
:10505000DC01CB018C199D09AE09BF09C297A105DE
:10506000B10538F461E070E080E090E00E94302209
:10507000E5CF0E946A226C197D097093C203609388
:10508000C1030E946A226093C3037093C403809398
:10509000C5039093C6030E945A1666CF9CE2E91698
:1050A000F1040105110509F482CEFFEFEF1AFF0AA2
:1050B0000F4F1F4F5FCE20E04FEE64E8C3010E9408
:1050C0000C188111A5CE84E0F301E253FF4F8083D9
:1050D000C3010E94931181119BCE41E06FEFC30188
:1050E0000E946F18382EAE014D5B5F4F64E8C3011C
:1050F0000E94C917382A40E06FEFC3010E946F1861
:10510000832909F085CEF301E853FF4F25968EAD34
:105110009FAD259744E0880F991F4A95E1F7A0E0DD
:10512000B0E080839183A283B383B201C3010E9464
:10513000E30481116DCEAE01495B5F4F69E0C301AD
:105140000E94F817811164CE28968FAD2897817040
:1051500028968FAF2897F301E25EFE4F80838AE3A3
:10516000F201D301509601900D928A95E1F7AE01BC
:10517000495B5F4F61E0C3010E94F817811148CE7F
:105180008301035E1E4F28968FAD2897F801808318
:105190001BAEAE01455C5F4F61E0C3010E94F81792
:1051A0009BAD811117C0F92FFF7EFF2EF917A1F0DB
:1051B0004F2F61E0C3010E946F1881110BC0F801ED
:1051C000F082F3014289538964897589C3010E9481
:1051D0007C1902C081111CCE1BAEAE01455C5F4F35
:1051E00061E0C3010E94F8179BAD811117C0F92F30
:1051F000FB7FFF2EF917A1F04F2F61E0C3010E9442
:105200006F1881110BC0F801F082F30142895389B4
:1052100064897589C3010E947C1902C08111F8CD8F
:1052200083E0F301E15EFE4F8083AE014B5B5F4F95
:1052300060E0C3010E94E41A8111EACD26968FAD89
:105240002697F301E852FF4F8083AE014B5B5F4F1F
:1052500061E0C3010E94E41A8111DACD26968FAD78
:105260002697F301ED52FF4F8083AE01455C5F4FFF
:1052700063E0C3010E944B048111CACD8BAD9CAD8C
:10528000ADADBEADF301EC52FF4F80839183A2839D
:10529000B383AE01455C5F4F64E0C3010E944B04E1
:1052A0008111B6CDF301E153FF4F4BAD5CAD6DAD58
:1052B0007EAD4083518362837383AACD80911907A9
:1052C00090911A07009711F00E94922C8091170775
:1052D00087FD03C060E00E94CF2180912607909156
:1052E00027070C94922C109288041092870488EE61
:1052F00093E0A0E0B0E08093890490938A04A093A7
:105300008B04B0938C042FE133E030938604209318
:10531000850425EC30E0309392042093910424EC32
:1053200030E0309394042093930420EC30E03093E9
:1053300096042093950421EC30E030939804209358
:10534000970422EC30E030939A042093990426ECE1
:1053500030E030939C0420939B0410929E041092A2
:105360009F041092A0041092A1041092250510929F
:1053700024058093260590932705A0932805B093D4
:10538000290581E393E090932305809322051092F1
:1053900038071092390710923A0710925B07109263
:1053A0005C0710925D0710925E07109262071092E0
:1053B00061078EE190E0909364078093630788E62D
:1053C00091E00E94FD2B909327078093260710926F
:1053D00012071092180710921F07109220071092C0
:1053E00021071092220781E080931E0780931B07FC
:1053F00010921C0792E090931D078093110780E3A1
:1054000090E090931607809315070E94FD2B9093D0
:105410001A0780931907009761F020E3DC011D92C1
:105420002A95E9F780E190E09093140780931307A1
:1054300008C01092160710921507109214071092C8
:1054400013078CE08093170780911207882341F09F
:1054500061E08CE00E94CF2160E08CE00E94E114CA
:10546000E6E1F3E0E491F0E0EE0FFF1FE051FD4FC5
:10547000859194919093240780932307E6EBF2E0C3
:10548000E491E0932507EDE5F5E084EB91E0DF01A1
:105490009C011D9221503040E1F78EE595E09093FC
:1054A000A4068093A30685EA96E09093AD068093C8
:1054B000AC0688E680934E0510924705109246058B
:1054C000109249051092480510924B0510924A051A
:1054D00010924D0510924C0581E090E090933F05AD
:1054E00080933E059093410580934005909343053A
:1054F0008093420590934505809344058091FF0277
:105500009091000390932F0580932E058091FB02CC
:105510009091FC0290933105809330058091F702C1
:105520009091F80290933305809332058091F302B5
:105530009091F40290933505809334058091010396
:105540009091020390933705809336058091FD0278
:105550009091FE0290933905809338058091F9026D
:105560009091FA0290933B0580933A058091F50261
:105570009091F60290933D0580933C050895052E89
:1055800097FB1EF400940E94D62A57FD07D00E9474
:10559000E92A07FC03D04EF40C94D62A5095409586
:1055A000309521953F4F4F4F5F4F089590958095CF
:1055B000709561957F4F8F4F9F4F08950E940B2BE1
:1055C000A59F900DB49F900DA49F800D911D112457
:1055D0000895A1E21A2EAA1BBB1BFD010DC0AA1F34
:1055E000BB1FEE1FFF1FA217B307E407F50720F04C
:1055F000A21BB30BE40BF50B661F771F881F991FC7
:105600001A9469F760957095809590959B01AC010F
:10561000BD01CF010895A29FB001B39FC001A39F18
:10562000700D811D1124911DB29F700D811D1124DB
:10563000911D0895DB018F939F930E94DE2ABF91F5
:10564000AF91A29F800D911DA39F900DB29F900DD1
:1056500011240895AA1BBB1B51E107C0AA1FBB1F41
:10566000A617B70710F0A61BB70B881F991F5A95EE
:10567000A9F780959095BC01CD01089597FB072E61
:1056800016F4009407D077FD09D00E942A2B07FC5E
:1056900005D03EF4909581959F4F08957095619542
:1056A0007F4F0895EE0FFF1F881F8BBF0790F69165
:1056B000E02D19940E940B2BB7FF0895821B930BCA
:1056C00008950E94682B6894B1110C94F72B0895EB
:1056D0000E94DC2B88F09F5798F0B92F9927B7517B
:1056E000B0F0E1F0660F771F881F991F1AF0BA9586
:1056F000C9F714C0B13091F00E94F62BB1E00895C3
:105700000C94F62B672F782F8827B85F39F0B93FB4
:10571000CCF3869577956795B395D9F73EF4909538
:105720008095709561957F4F8F4F9F4F0895E894B6
:1057300009C097FB3EF490958095709561957F4FD9
:105740008F4F9F4F9923A9F0F92F96E9BB27939587
:10575000F695879577956795B795F111F8CFFAF497
:10576000BB0F11F460FF1BC06F5F7F4F8F4F9F4FC8
:1057700016C0882311F096E911C0772321F09EE826
:10578000872F762F05C0662371F096E8862F70E08C
:1057900060E02AF09A95660F771F881FDAF7880F66
:1057A0009695879597F9089557FD9058440F551F82
:1057B00059F05F3F71F04795880F97FB991F61F093
:1057C0009F3F79F087950895121613061406551F0A
:1057D000F2CF4695F1DF08C0161617061806991F76
:1057E000F1CF86957105610508940895E894BB276B
:1057F00066277727CB0197F90895CF93DF938230FF
:10580000910510F482E090E0E0917007F09171074B
:1058100020E030E0C0E0D0E0309711F140815181CC
:1058200048175907C0F04817590761F482819381DE
:10583000209719F09B838A832BC0909371078093E4
:10584000700726C02115310519F04217530718F4C7
:105850009A01BE01DF01EF010280F381E02DDCCF70
:105860002115310509F1281B390B2430310590F43D
:1058700012968D919C9113976115710521F0FB0192
:105880009383828304C09093710780937007FD0116
:10589000329644C0FD01E20FF31F81939193225091
:1058A00031092D933C933AC020916E0730916F07D8
:1058B000232B41F4209105033091060330936F07A9
:1058C00020936E07209103033091040321153105C5
:1058D00041F42DB73EB74091070350910803241BB4
:1058E000350BE0916E07F0916F07E217F307A0F414
:1058F0002E1B3F0B2817390778F0AC014E5F5F4F26
:105900002417350748F04E0F5F1F50936F074093E1
:105910006E078193919302C0E0E0F0E0CF01DF9148
:10592000CF9108950F931F93CF93DF93009709F4BE
:105930008CC0FC0132971382128200917007109183
:1059400071070115110581F420813181820F931FA8
:1059500020916E0730916F072817390779F5F0937A
:105960006F07E0936E0771C0D80140E050E0AE17BA
:10597000BF0750F412962D913C911397AD0121155C
:10598000310509F1D901F3CF9D01DA013383228377
:1059900060817181860F971F8217930769F4EC016C
:1059A00028813981260F371F2E5F3F4F3183208397
:1059B0008A819B8193838283452B29F4F09371071D
:1059C000E093700742C01396FC93EE931297ED019B
:1059D000499159919E01240F351FE217F30771F485
:1059E00080819181840F951F029611969C938E93CE
:1059F0008281938113969C938E931297E0E0F0E05E
:105A0000D80112968D919C911397009719F0F80187
:105A10008C01F6CF8D919C9198012E5F3F4F820FA4
:105A2000931F20916E0730916F072817390769F48B
:105A3000309729F4109271071092700702C01382F8
:105A4000128210936F0700936E07DF91CF911F9121
:105A50000F9108956F927F928F929F92AF92BF9213
:105A6000CF92DF92EF92FF920F931F93CF93DF932A
:105A7000EC01009789F4CB01DF91CF911F910F9139
:105A8000FF90EF90DF90CF90BF90AF909F908F905E
:105A90007F906F900C94FD2BFC01E60FF71F9C018B
:105AA00022503109E217F30708F4ACC0D9010D9177
:105AB0001C91119706171707B0F00530110508F46F
:105AC0009FC0C80104978617970708F499C0025031
:105AD0001109061B170B019311936D937C93CF0152
